{
  "_format": "hh3-artifact-1",
  "contractName": "YNXArbitration",
  "sourceName": "contracts/YNXArbitration.sol",
  "abi": [
    {
      "inputs": [
        {
          "internalType": "contract YNXOrgRegistry",
          "name": "orgRegistry_",
          "type": "address"
        }
      ],
      "stateMutability": "nonpayable",
      "type": "constructor"
    },
    {
      "inputs": [],
      "name": "AlreadyResolved",
      "type": "error"
    },
    {
      "inputs": [],
      "name": "AlreadyVoted",
      "type": "error"
    },
    {
      "inputs": [],
      "name": "CallbackAlreadyExecuted",
      "type": "error"
    },
    {
      "inputs": [],
      "name": "CourtNotFound",
      "type": "error"
    },
    {
      "inputs": [],
      "name": "DisputeNotFound",
      "type": "error"
    },
    {
      "inputs": [],
      "name": "InvalidQuorum",
      "type": "error"
    },
    {
      "inputs": [],
      "name": "NotArbitrator",
      "type": "error"
    },
    {
      "inputs": [],
      "name": "NotResolved",
      "type": "error"
    },
    {
      "inputs": [],
      "name": "OnlyOrgAdmin",
      "type": "error"
    },
    {
      "anonymous": false,
      "inputs": [
        {
          "indexed": true,
          "internalType": "uint256",
          "name": "courtOrgId",
          "type": "uint256"
        },
        {
          "indexed": false,
          "internalType": "uint16",
          "name": "quorum",
          "type": "uint16"
        }
      ],
      "name": "CourtQuorumUpdated",
      "type": "event"
    },
    {
      "anonymous": false,
      "inputs": [
        {
          "indexed": true,
          "internalType": "uint256",
          "name": "disputeId",
          "type": "uint256"
        },
        {
          "indexed": false,
          "internalType": "bool",
          "name": "success",
          "type": "bool"
        }
      ],
      "name": "DisputeCallbackExecuted",
      "type": "event"
    },
    {
      "anonymous": false,
      "inputs": [
        {
          "indexed": true,
          "internalType": "uint256",
          "name": "disputeId",
          "type": "uint256"
        },
        {
          "indexed": true,
          "internalType": "address",
          "name": "arbitrable",
          "type": "address"
        },
        {
          "indexed": true,
          "internalType": "uint256",
          "name": "courtOrgId",
          "type": "uint256"
        },
        {
          "indexed": false,
          "internalType": "uint16",
          "name": "quorum",
          "type": "uint16"
        }
      ],
      "name": "DisputeOpened",
      "type": "event"
    },
    {
      "anonymous": false,
      "inputs": [
        {
          "indexed": true,
          "internalType": "uint256",
          "name": "disputeId",
          "type": "uint256"
        },
        {
          "indexed": false,
          "internalType": "uint8",
          "name": "ruling",
          "type": "uint8"
        }
      ],
      "name": "DisputeResolved",
      "type": "event"
    },
    {
      "anonymous": false,
      "inputs": [
        {
          "indexed": true,
          "internalType": "uint256",
          "name": "disputeId",
          "type": "uint256"
        },
        {
          "indexed": true,
          "internalType": "address",
          "name": "arbitrator",
          "type": "address"
        },
        {
          "indexed": false,
          "internalType": "uint8",
          "name": "ruling",
          "type": "uint8"
        }
      ],
      "name": "DisputeVoted",
      "type": "event"
    },
    {
      "inputs": [],
      "name": "ARBITRATOR_ROLE",
      "outputs": [
        {
          "internalType": "bytes32",
          "name": "",
          "type": "bytes32"
        }
      ],
      "stateMutability": "view",
      "type": "function"
    },
    {
      "inputs": [
        {
          "internalType": "uint256",
          "name": "courtOrgId",
          "type": "uint256"
        }
      ],
      "name": "courtQuorum",
      "outputs": [
        {
          "internalType": "uint16",
          "name": "quorum",
          "type": "uint16"
        }
      ],
      "stateMutability": "view",
      "type": "function"
    },
    {
      "inputs": [],
      "name": "disputeCount",
      "outputs": [
        {
          "internalType": "uint256",
          "name": "",
          "type": "uint256"
        }
      ],
      "stateMutability": "view",
      "type": "function"
    },
    {
      "inputs": [
        {
          "internalType": "uint256",
          "name": "disputeId",
          "type": "uint256"
        }
      ],
      "name": "disputes",
      "outputs": [
        {
          "internalType": "address",
          "name": "arbitrable",
          "type": "address"
        },
        {
          "internalType": "uint256",
          "name": "courtOrgId",
          "type": "uint256"
        },
        {
          "internalType": "uint16",
          "name": "quorum",
          "type": "uint16"
        },
        {
          "internalType": "bool",
          "name": "resolved",
          "type": "bool"
        },
        {
          "internalType": "bool",
          "name": "callbackExecuted",
          "type": "bool"
        },
        {
          "internalType": "uint8",
          "name": "ruling",
          "type": "uint8"
        },
        {
          "internalType": "bytes",
          "name": "data",
          "type": "bytes"
        }
      ],
      "stateMutability": "view",
      "type": "function"
    },
    {
      "inputs": [
        {
          "internalType": "uint256",
          "name": "disputeId",
          "type": "uint256"
        }
      ],
      "name": "executeCallback",
      "outputs": [],
      "stateMutability": "nonpayable",
      "type": "function"
    },
    {
      "inputs": [
        {
          "internalType": "uint256",
          "name": "disputeId",
          "type": "uint256"
        },
        {
          "internalType": "address",
          "name": "arbitrator",
          "type": "address"
        }
      ],
      "name": "hasVoted",
      "outputs": [
        {
          "internalType": "bool",
          "name": "",
          "type": "bool"
        }
      ],
      "stateMutability": "view",
      "type": "function"
    },
    {
      "inputs": [
        {
          "internalType": "address",
          "name": "arbitrable",
          "type": "address"
        },
        {
          "internalType": "uint256",
          "name": "courtOrgId",
          "type": "uint256"
        },
        {
          "internalType": "bytes",
          "name": "data",
          "type": "bytes"
        }
      ],
      "name": "openDispute",
      "outputs": [
        {
          "internalType": "uint256",
          "name": "disputeId",
          "type": "uint256"
        }
      ],
      "stateMutability": "nonpayable",
      "type": "function"
    },
    {
      "inputs": [],
      "name": "orgRegistry",
      "outputs": [
        {
          "internalType": "contract YNXOrgRegistry",
          "name": "",
          "type": "address"
        }
      ],
      "stateMutability": "view",
      "type": "function"
    },
    {
      "inputs": [
        {
          "internalType": "uint256",
          "name": "disputeId",
          "type": "uint256"
        },
        {
          "internalType": "uint8",
          "name": "ruling",
          "type": "uint8"
        }
      ],
      "name": "rulingVotes",
      "outputs": [
        {
          "internalType": "uint256",
          "name": "votes",
          "type": "uint256"
        }
      ],
      "stateMutability": "view",
      "type": "function"
    },
    {
      "inputs": [
        {
          "internalType": "uint256",
          "name": "courtOrgId",
          "type": "uint256"
        },
        {
          "internalType": "uint16",
          "name": "quorum",
          "type": "uint16"
        }
      ],
      "name": "setCourtQuorum",
      "outputs": [],
      "stateMutability": "nonpayable",
      "type": "function"
    },
    {
      "inputs": [
        {
          "internalType": "uint256",
          "name": "disputeId",
          "type": "uint256"
        },
        {
          "internalType": "uint8",
          "name": "ruling",
          "type": "uint8"
        }
      ],
      "name": "vote",
      "outputs": [],
      "stateMutability": "nonpayable",
      "type": "function"
    }
  ],
  "bytecode": "0x60a060405234801561000f575f80fd5b5060405161105738038061105783398101604081905261002e9161003f565b6001600160a01b031660805261006c565b5f6020828403121561004f575f80fd5b81516001600160a01b0381168114610065575f80fd5b9392505050565b608051610fbe6100995f395f818161016e0152818161025e0152818161064a015261098c0152610fbe5ff3fe608060405234801561000f575f80fd5b50600436106100a6575f3560e01c8063596d105b1161006e578063596d105b146101a8578063943e8216146101d25780639cea0787146101e7578063a28889e11461020e578063beeca76714610216578063e684ac6914610229575f80fd5b80630f14d505146100aa57806343859632146100e5578063459925e414610122578063564a565d14610143578063573f239c14610169575b5f80fd5b6100cd6100b8366004610ac8565b60026020525f908152604090205461ffff1681565b60405161ffff90911681526020015b60405180910390f35b6101126100f3366004610af6565b600360209081525f928352604080842090915290825290205460ff1681565b60405190151581526020016100dc565b610135610130366004610b24565b61023c565b6040519081526020016100dc565b610156610151366004610ac8565b6104bf565b6040516100dc9796959493929190610bc8565b6101907f000000000000000000000000000000000000000000000000000000000000000081565b6040516001600160a01b0390911681526020016100dc565b6101356101b6366004610c3b565b600460209081525f928352604080842090915290825290205481565b6101e56101e0366004610c3b565b6105a1565b005b6101357f12f2a202ec5999866a94474e99d46b7bf4d80cd7bfd1b76112ca747570b7d94d81565b6101355f5481565b6101e5610224366004610ac8565b610815565b6101e5610237366004610c63565b610974565b6040516313d70b9b60e21b8152600481018490525f9081906001600160a01b037f00000000000000000000000000000000000000000000000000000000000000001690634f5c2e6c906024015f60405180830381865afa1580156102a2573d5f803e3d5ffd5b505050506040513d5f823e601f3d908101601f191682016040526102c99190810190610ca0565b5090506001600160a01b0381166102f357604051633f7c27cd60e21b815260040160405180910390fd5b5f8581526002602052604081205461ffff16908190036103265760405163d173577960e01b815260040160405180910390fd5b5f80815461033390610d5e565b91905081905592506040518060e00160405280886001600160a01b031681526020018781526020018261ffff1681526020015f151581526020015f151581526020015f60ff16815260200186868080601f0160208091040260200160405190810160405280939291908181526020018383808284375f92018290525093909452505085815260016020818152604092839020855181546001600160a01b039091166001600160a01b03199091161781559085015191810191909155908301516002820180546060860151608087015160a088015160ff166401000000000264ff00000000199115156301000000029190911664ffff00000019921515620100000262ffffff1990941661ffff9096169590951792909217169290921791909117905560c0830151909150600382019061046c9082610e06565b505060405161ffff831681528791506001600160a01b0389169085907fd8f6c91960bf66e0468e0ce7efafa60fc6a593615997040d774502fc30b2cb889060200160405180910390a45050949350505050565b600160208190525f918252604090912080549181015460028201546003830180546001600160a01b0390951694929361ffff83169360ff62010000850481169463010000008104821694640100000000909104909116929161052090610d82565b80601f016020809104026020016040519081016040528092919081815260200182805461054c90610d82565b80156105975780601f1061056e57610100808354040283529160200191610597565b820191905f5260205f20905b81548152906001019060200180831161057a57829003601f168201915b5050505050905087565b5f82815260016020526040902080546001600160a01b03166105d65760405163084a15e160e31b815260040160405180910390fd5b600281015462010000900460ff1615610602576040516336ab81e160e11b815260040160405180910390fd5b60018101546040516308c9a2d560e11b815260048101919091527f12f2a202ec5999866a94474e99d46b7bf4d80cd7bfd1b76112ca747570b7d94d60248201523360448201527f00000000000000000000000000000000000000000000000000000000000000006001600160a01b03169063119345aa90606401602060405180830381865afa158015610697573d5f803e3d5ffd5b505050506040513d601f19601f820116820180604052508101906106bb9190610ec6565b6106d85760405163667f86ef60e01b815260040160405180910390fd5b5f83815260036020908152604080832033845290915290205460ff161561071257604051637c9a1cf960e01b815260040160405180910390fd5b5f8381526003602090815260408083203384528252808320805460ff191660011790558583526004825280832060ff8616845290915281208054829061075790610d5e565b918290555060405160ff85168152909150339085907f0e5f80c77a8781fd94944b983816d657c1fe19bc690324f90d63c0a283d7fe579060200160405180910390a3600282015461ffff16811061080f5760028201805460ff85166401000000000264ff00ff000019909116176201000017905560405184907f2ffcfee146bc0d5ff304c6b65111a0d485af9456dc64eee7d66ebdcc90b223ea9061080690869060ff91909116815260200190565b60405180910390a25b50505050565b5f81815260016020526040902080546001600160a01b031661084a5760405163084a15e160e31b815260040160405180910390fd5b600281015462010000900460ff1661087557604051639f4a648960e01b815260040160405180910390fd5b60028101546301000000900460ff16156108a25760405163100f185160e21b815260040160405180910390fd5b60028101805463ff000000191663010000001790819055815460405163023f813160e51b81525f926001600160a01b03909216916347f02620916108fc91879164010000000090910460ff16906003880190600401610eec565b5f604051808303815f87803b158015610913575f80fd5b505af1925050508015610924575060015b61092f57505f610933565b5060015b827f3f457688f9d55c0a53af75ae313b6c1042ae75015d2af8463b08a4891f51b29b82604051610967911515815260200190565b60405180910390a2505050565b6040516313d70b9b60e21b8152600481018390525f907f00000000000000000000000000000000000000000000000000000000000000006001600160a01b031690634f5c2e6c906024015f60405180830381865afa1580156109d8573d5f803e3d5ffd5b505050506040513d5f823e601f3d908101601f191682016040526109ff9190810190610ca0565b5090506001600160a01b038116610a2957604051633f7c27cd60e21b815260040160405180910390fd5b336001600160a01b03821614610a52576040516311c64b9d60e11b815260040160405180910390fd5b8161ffff165f03610a765760405163d173577960e01b815260040160405180910390fd5b5f83815260026020908152604091829020805461ffff191661ffff8616908117909155915191825284917f0a548b98db7119f93df3c6a350676aea4fde5c9976ff958421195a8d4414a1859101610967565b5f60208284031215610ad8575f80fd5b5035919050565b6001600160a01b0381168114610af3575f80fd5b50565b5f8060408385031215610b07575f80fd5b823591506020830135610b1981610adf565b809150509250929050565b5f805f8060608587031215610b37575f80fd5b8435610b4281610adf565b935060208501359250604085013567ffffffffffffffff80821115610b65575f80fd5b818701915087601f830112610b78575f80fd5b813581811115610b86575f80fd5b886020828501011115610b97575f80fd5b95989497505060200194505050565b5f5b83811015610bc0578181015183820152602001610ba8565b50505f910152565b60018060a01b038816815286602082015261ffff861660408201528415156060820152831515608082015260ff831660a082015260e060c08201525f82518060e0840152610100610c1f8282860160208801610ba6565b80601f19601f8401168501019250505098975050505050505050565b5f8060408385031215610c4c575f80fd5b82359150602083013560ff81168114610b19575f80fd5b5f8060408385031215610c74575f80fd5b82359150602083013561ffff81168114610b19575f80fd5b634e487b7160e01b5f52604160045260245ffd5b5f8060408385031215610cb1575f80fd5b8251610cbc81610adf565b602084015190925067ffffffffffffffff80821115610cd9575f80fd5b818501915085601f830112610cec575f80fd5b815181811115610cfe57610cfe610c8c565b604051601f8201601f19908116603f01168101908382118183101715610d2657610d26610c8c565b81604052828152886020848701011115610d3e575f80fd5b610d4f836020830160208801610ba6565b80955050505050509250929050565b5f60018201610d7b57634e487b7160e01b5f52601160045260245ffd5b5060010190565b600181811c90821680610d9657607f821691505b602082108103610db457634e487b7160e01b5f52602260045260245ffd5b50919050565b601f821115610e0157805f5260205f20601f840160051c81016020851015610ddf5750805b601f840160051c820191505b81811015610dfe575f8155600101610deb565b50505b505050565b815167ffffffffffffffff811115610e2057610e20610c8c565b610e3481610e2e8454610d82565b84610dba565b602080601f831160018114610e67575f8415610e505750858301515b5f19600386901b1c1916600185901b178555610ebe565b5f85815260208120601f198616915b82811015610e9557888601518255948401946001909101908401610e76565b5085821015610eb257878501515f19600388901b60f8161c191681555b505060018460011b0185555b505050505050565b5f60208284031215610ed6575f80fd5b81518015158114610ee5575f80fd5b9392505050565b8381525f602060ff85166020840152606060408401525f8454610f0e81610d82565b806060870152608060018084165f8114610f2f5760018114610f4b57610f78565b60ff19851660808a0152608084151560051b8a01019550610f78565b895f5260205f205f5b85811015610f6f5781548b8201860152908301908801610f54565b8a016080019650505b50939a995050505050505050505056fea2646970667358221220caaa461894a5bb9047b28c843a628f54c268e1e60082fab5a39c258dc112925364736f6c63430008180033",
  "linkReferences": {},
  "deployedLinkReferences": {},
  "immutableReferences": {
    "61": [
      {
        "length": 32,
        "start": 366
      },
      {
        "length": 32,
        "start": 606
      },
      {
        "length": 32,
        "start": 1610
      },
      {
        "length": 32,
        "start": 2444
      }
    ]
  },
  "inputSourceName": "project/contracts/YNXArbitration.sol",
  "buildInfoId": "solc-0_8_24-b7148b90ef9b41e6649e2501307e0693bd917c53"
}