{
  "_format": "hh3-artifact-1",
  "contractName": "YNXDomainInbox",
  "sourceName": "contracts/YNXDomainInbox.sol",
  "abi": [
    {
      "inputs": [],
      "name": "CommitmentAlreadyExists",
      "type": "error"
    },
    {
      "inputs": [],
      "name": "DomainAlreadyExists",
      "type": "error"
    },
    {
      "inputs": [],
      "name": "DomainNotFound",
      "type": "error"
    },
    {
      "inputs": [],
      "name": "NotAuthorizedSubmitter",
      "type": "error"
    },
    {
      "inputs": [],
      "name": "NotDomainOwner",
      "type": "error"
    },
    {
      "anonymous": false,
      "inputs": [
        {
          "indexed": true,
          "internalType": "bytes32",
          "name": "domainId",
          "type": "bytes32"
        },
        {
          "indexed": true,
          "internalType": "uint64",
          "name": "batch",
          "type": "uint64"
        },
        {
          "indexed": false,
          "internalType": "bytes32",
          "name": "stateRoot",
          "type": "bytes32"
        },
        {
          "indexed": false,
          "internalType": "bytes32",
          "name": "dataHash",
          "type": "bytes32"
        },
        {
          "indexed": true,
          "internalType": "address",
          "name": "submitter",
          "type": "address"
        }
      ],
      "name": "CommitmentSubmitted",
      "type": "event"
    },
    {
      "anonymous": false,
      "inputs": [
        {
          "indexed": true,
          "internalType": "bytes32",
          "name": "domainId",
          "type": "bytes32"
        },
        {
          "indexed": false,
          "internalType": "string",
          "name": "metadata",
          "type": "string"
        }
      ],
      "name": "DomainMetadataUpdated",
      "type": "event"
    },
    {
      "anonymous": false,
      "inputs": [
        {
          "indexed": true,
          "internalType": "bytes32",
          "name": "domainId",
          "type": "bytes32"
        },
        {
          "indexed": true,
          "internalType": "address",
          "name": "newOwner",
          "type": "address"
        }
      ],
      "name": "DomainOwnerUpdated",
      "type": "event"
    },
    {
      "anonymous": false,
      "inputs": [
        {
          "indexed": true,
          "internalType": "bytes32",
          "name": "domainId",
          "type": "bytes32"
        },
        {
          "indexed": true,
          "internalType": "address",
          "name": "owner",
          "type": "address"
        },
        {
          "indexed": false,
          "internalType": "string",
          "name": "metadata",
          "type": "string"
        }
      ],
      "name": "DomainRegistered",
      "type": "event"
    },
    {
      "anonymous": false,
      "inputs": [
        {
          "indexed": true,
          "internalType": "bytes32",
          "name": "domainId",
          "type": "bytes32"
        },
        {
          "indexed": true,
          "internalType": "address",
          "name": "submitter",
          "type": "address"
        },
        {
          "indexed": false,
          "internalType": "bool",
          "name": "enabled",
          "type": "bool"
        }
      ],
      "name": "DomainSubmitterUpdated",
      "type": "event"
    },
    {
      "inputs": [
        {
          "internalType": "bytes32",
          "name": "",
          "type": "bytes32"
        },
        {
          "internalType": "uint64",
          "name": "",
          "type": "uint64"
        }
      ],
      "name": "commitments",
      "outputs": [
        {
          "internalType": "bytes32",
          "name": "stateRoot",
          "type": "bytes32"
        },
        {
          "internalType": "bytes32",
          "name": "dataHash",
          "type": "bytes32"
        },
        {
          "internalType": "address",
          "name": "submitter",
          "type": "address"
        },
        {
          "internalType": "uint64",
          "name": "timestamp",
          "type": "uint64"
        },
        {
          "internalType": "bool",
          "name": "exists",
          "type": "bool"
        }
      ],
      "stateMutability": "view",
      "type": "function"
    },
    {
      "inputs": [
        {
          "internalType": "bytes32",
          "name": "",
          "type": "bytes32"
        }
      ],
      "name": "domainMetadata",
      "outputs": [
        {
          "internalType": "string",
          "name": "",
          "type": "string"
        }
      ],
      "stateMutability": "view",
      "type": "function"
    },
    {
      "inputs": [
        {
          "internalType": "bytes32",
          "name": "",
          "type": "bytes32"
        }
      ],
      "name": "domainOwner",
      "outputs": [
        {
          "internalType": "address",
          "name": "",
          "type": "address"
        }
      ],
      "stateMutability": "view",
      "type": "function"
    },
    {
      "inputs": [
        {
          "internalType": "bytes32",
          "name": "",
          "type": "bytes32"
        },
        {
          "internalType": "address",
          "name": "",
          "type": "address"
        }
      ],
      "name": "domainSubmitter",
      "outputs": [
        {
          "internalType": "bool",
          "name": "",
          "type": "bool"
        }
      ],
      "stateMutability": "view",
      "type": "function"
    },
    {
      "inputs": [
        {
          "internalType": "bytes32",
          "name": "domainId",
          "type": "bytes32"
        },
        {
          "internalType": "string",
          "name": "metadata",
          "type": "string"
        }
      ],
      "name": "registerDomain",
      "outputs": [],
      "stateMutability": "nonpayable",
      "type": "function"
    },
    {
      "inputs": [
        {
          "internalType": "bytes32",
          "name": "domainId",
          "type": "bytes32"
        },
        {
          "internalType": "string",
          "name": "metadata",
          "type": "string"
        }
      ],
      "name": "setDomainMetadata",
      "outputs": [],
      "stateMutability": "nonpayable",
      "type": "function"
    },
    {
      "inputs": [
        {
          "internalType": "bytes32",
          "name": "domainId",
          "type": "bytes32"
        },
        {
          "internalType": "address",
          "name": "newOwner",
          "type": "address"
        }
      ],
      "name": "setDomainOwner",
      "outputs": [],
      "stateMutability": "nonpayable",
      "type": "function"
    },
    {
      "inputs": [
        {
          "internalType": "bytes32",
          "name": "domainId",
          "type": "bytes32"
        },
        {
          "internalType": "address",
          "name": "submitter",
          "type": "address"
        },
        {
          "internalType": "bool",
          "name": "enabled",
          "type": "bool"
        }
      ],
      "name": "setDomainSubmitter",
      "outputs": [],
      "stateMutability": "nonpayable",
      "type": "function"
    },
    {
      "inputs": [
        {
          "internalType": "bytes32",
          "name": "domainId",
          "type": "bytes32"
        },
        {
          "internalType": "uint64",
          "name": "batch",
          "type": "uint64"
        },
        {
          "internalType": "bytes32",
          "name": "stateRoot",
          "type": "bytes32"
        },
        {
          "internalType": "bytes32",
          "name": "dataHash",
          "type": "bytes32"
        }
      ],
      "name": "submitCommitment",
      "outputs": [],
      "stateMutability": "nonpayable",
      "type": "function"
    }
  ],
  "bytecode": "0x608060405234801561000f575f80fd5b50610c208061001d5f395ff3fe608060405234801561000f575f80fd5b5060043610610090575f3560e01c806397a68e491161006357806397a68e491461011e578063ca5080f514610131578063d26cdd2014610144578063f67bc1e514610184578063fc326f1b14610225575f80fd5b806332935914146100945780633921cd8e146100d6578063671ec66c146100eb5780637fb5f7ff146100fe575b5f80fd5b6100c16100a23660046108b7565b600260209081525f928352604080842090915290825290205460ff1681565b60405190151581526020015b60405180910390f35b6100e96100e43660046108e1565b610238565b005b6100e96100f93660046108b7565b610334565b61011161010c366004610922565b610478565b6040516100cd9190610939565b6100e961012c36600461099c565b61050f565b6100e961013f3660046109d4565b6106c1565b61016c610152366004610922565b5f602081905290815260409020546001600160a01b031681565b6040516001600160a01b0390911681526020016100cd565b6101e4610192366004610a49565b600360209081525f92835260408084209091529082529020805460018201546002909201549091906001600160a01b03811690600160a01b810467ffffffffffffffff1690600160e01b900460ff1685565b6040805195865260208601949094526001600160a01b039092169284019290925267ffffffffffffffff90911660608301521515608082015260a0016100cd565b6100e96102333660046109d4565b6107da565b5f838152602081905260409020546001600160a01b031661026c576040516351b8374160e11b815260040160405180910390fd5b5f838152602081905260409020546001600160a01b031633146102a2576040516326fdee4b60e11b815260040160405180910390fd5b6001600160a01b0382166102c9576040516351b8374160e11b815260040160405180910390fd5b5f8381526002602090815260408083206001600160a01b03861680855290835292819020805460ff1916851515908117909155905190815285917f8098828150bf601b1e61b514feb25d9259b075b3dcd063416af5f82a5b87f1d791015b60405180910390a3505050565b5f828152602081905260409020546001600160a01b0316610368576040516351b8374160e11b815260040160405180910390fd5b5f828152602081905260409020546001600160a01b0316331461039e576040516326fdee4b60e11b815260040160405180910390fd5b6001600160a01b0381166103c5576040516351b8374160e11b815260040160405180910390fd5b5f8281526020818152604080832080546001600160a01b0319166001600160a01b03861690811790915560028352818420818552909252808320805460ff1916600117905551909184917f585b568d6351811818a517744cd6c2e90ab275e225514e504aff3bf1f647728a9190a3604051600181526001600160a01b0382169083907f8098828150bf601b1e61b514feb25d9259b075b3dcd063416af5f82a5b87f1d79060200160405180910390a35050565b60016020525f90815260409020805461049090610a6a565b80601f01602080910402602001604051908101604052809291908181526020018280546104bc90610a6a565b80156105075780601f106104de57610100808354040283529160200191610507565b820191905f5260205f20905b8154815290600101906020018083116104ea57829003601f168201915b505050505081565b5f848152602081905260409020546001600160a01b0316610543576040516351b8374160e11b815260040160405180910390fd5b5f84815260026020908152604080832033845290915290205460ff1661057c576040516334a8dd7f60e01b815260040160405180910390fd5b5f84815260036020908152604080832067ffffffffffffffff8716845290915290206002810154600160e01b900460ff16156105cb5760405163145718a760e01b815260040160405180910390fd5b6040805160a08101825284815260208082018581523383850181815267ffffffffffffffff428116606087019081526001608088018181525f8f8152600389528a81208f861680835299528a902098518955955190880155915160029096018054925194511515600160e01b0260ff60e01b1995909216600160a01b026001600160e01b03199093166001600160a01b039790971696909617919091179290921691909117909255915190919087907f761912a13111fa9c67c0cfcc50b96358e42e3c4dd1e40c71fc82263774555259906106b29088908890918252602082015260400190565b60405180910390a45050505050565b826106df576040516351b8374160e11b815260040160405180910390fd5b5f838152602081905260409020546001600160a01b0316156107145760405163bd45fcaf60e01b815260040160405180910390fd5b5f8381526020818152604080832080546001600160a01b0319163317905560019091529020610744828483610b02565b505f83815260026020908152604080832033808552925291829020805460ff19166001179055905184907f64b1387f1f04372db607a4d23d45fc919a1a80e74a5be07655f1866d198c19ef9061079d9086908690610bbc565b60405180910390a360405160018152339084907f8098828150bf601b1e61b514feb25d9259b075b3dcd063416af5f82a5b87f1d790602001610327565b5f838152602081905260409020546001600160a01b031661080e576040516351b8374160e11b815260040160405180910390fd5b5f838152602081905260409020546001600160a01b03163314610844576040516326fdee4b60e11b815260040160405180910390fd5b5f83815260016020526040902061085c828483610b02565b50827f919809a7be711670be6dc5a9f024a023275045860dde54a01e0ef3bdf3cfff5b838360405161088f929190610bbc565b60405180910390a2505050565b80356001600160a01b03811681146108b2575f80fd5b919050565b5f80604083850312156108c8575f80fd5b823591506108d86020840161089c565b90509250929050565b5f805f606084860312156108f3575f80fd5b833592506109036020850161089c565b915060408401358015158114610917575f80fd5b809150509250925092565b5f60208284031215610932575f80fd5b5035919050565b5f602080835283518060208501525f5b8181101561096557858101830151858201604001528201610949565b505f604082860101526040601f19601f8301168501019250505092915050565b803567ffffffffffffffff811681146108b2575f80fd5b5f805f80608085870312156109af575f80fd5b843593506109bf60208601610985565b93969395505050506040820135916060013590565b5f805f604084860312156109e6575f80fd5b83359250602084013567ffffffffffffffff80821115610a04575f80fd5b818601915086601f830112610a17575f80fd5b813581811115610a25575f80fd5b876020828501011115610a36575f80fd5b6020830194508093505050509250925092565b5f8060408385031215610a5a575f80fd5b823591506108d860208401610985565b600181811c90821680610a7e57607f821691505b602082108103610a9c57634e487b7160e01b5f52602260045260245ffd5b50919050565b634e487b7160e01b5f52604160045260245ffd5b601f821115610afd57805f5260205f20601f840160051c81016020851015610adb5750805b601f840160051c820191505b81811015610afa575f8155600101610ae7565b50505b505050565b67ffffffffffffffff831115610b1a57610b1a610aa2565b610b2e83610b288354610a6a565b83610ab6565b5f601f841160018114610b5f575f8515610b485750838201355b5f19600387901b1c1916600186901b178355610afa565b5f83815260208120601f198716915b82811015610b8e5786850135825560209485019460019092019101610b6e565b5086821015610baa575f1960f88860031b161c19848701351681555b505060018560011b0183555050505050565b60208152816020820152818360408301375f818301604090810191909152601f909201601f1916010191905056fea26469706673582212202541067c45475233ae2637573f07121d393245c864c0fa8de75f461a91fdea3a64736f6c63430008180033",
  "linkReferences": {},
  "deployedLinkReferences": {},
  "immutableReferences": {},
  "inputSourceName": "project/contracts/YNXDomainInbox.sol",
  "buildInfoId": "solc-0_8_24-18cf4fbdc8017936d238755d517fdd12e36862ea"
}