{
  "_format": "hh3-artifact-1",
  "contractName": "YNXOrgRegistry",
  "sourceName": "contracts/YNXOrgRegistry.sol",
  "abi": [
    {
      "inputs": [],
      "name": "InvalidAdmin",
      "type": "error"
    },
    {
      "inputs": [],
      "name": "OnlyOrgAdmin",
      "type": "error"
    },
    {
      "inputs": [],
      "name": "OrgNotFound",
      "type": "error"
    },
    {
      "anonymous": false,
      "inputs": [
        {
          "indexed": true,
          "internalType": "uint256",
          "name": "orgId",
          "type": "uint256"
        },
        {
          "indexed": true,
          "internalType": "address",
          "name": "oldAdmin",
          "type": "address"
        },
        {
          "indexed": true,
          "internalType": "address",
          "name": "newAdmin",
          "type": "address"
        }
      ],
      "name": "OrgAdminTransferred",
      "type": "event"
    },
    {
      "anonymous": false,
      "inputs": [
        {
          "indexed": true,
          "internalType": "uint256",
          "name": "orgId",
          "type": "uint256"
        },
        {
          "indexed": true,
          "internalType": "address",
          "name": "admin",
          "type": "address"
        },
        {
          "indexed": false,
          "internalType": "string",
          "name": "metadataURI",
          "type": "string"
        }
      ],
      "name": "OrgCreated",
      "type": "event"
    },
    {
      "anonymous": false,
      "inputs": [
        {
          "indexed": true,
          "internalType": "uint256",
          "name": "orgId",
          "type": "uint256"
        },
        {
          "indexed": false,
          "internalType": "string",
          "name": "metadataURI",
          "type": "string"
        }
      ],
      "name": "OrgMetadataUpdated",
      "type": "event"
    },
    {
      "anonymous": false,
      "inputs": [
        {
          "indexed": true,
          "internalType": "uint256",
          "name": "orgId",
          "type": "uint256"
        },
        {
          "indexed": true,
          "internalType": "bytes32",
          "name": "role",
          "type": "bytes32"
        },
        {
          "indexed": true,
          "internalType": "address",
          "name": "account",
          "type": "address"
        },
        {
          "indexed": false,
          "internalType": "bool",
          "name": "enabled",
          "type": "bool"
        }
      ],
      "name": "OrgRoleUpdated",
      "type": "event"
    },
    {
      "inputs": [
        {
          "internalType": "address",
          "name": "admin",
          "type": "address"
        },
        {
          "internalType": "string",
          "name": "metadataURI",
          "type": "string"
        }
      ],
      "name": "createOrg",
      "outputs": [
        {
          "internalType": "uint256",
          "name": "orgId",
          "type": "uint256"
        }
      ],
      "stateMutability": "nonpayable",
      "type": "function"
    },
    {
      "inputs": [
        {
          "internalType": "uint256",
          "name": "orgId",
          "type": "uint256"
        },
        {
          "internalType": "bytes32",
          "name": "role",
          "type": "bytes32"
        },
        {
          "internalType": "address",
          "name": "account",
          "type": "address"
        }
      ],
      "name": "hasRole",
      "outputs": [
        {
          "internalType": "bool",
          "name": "",
          "type": "bool"
        }
      ],
      "stateMutability": "view",
      "type": "function"
    },
    {
      "inputs": [],
      "name": "orgCount",
      "outputs": [
        {
          "internalType": "uint256",
          "name": "",
          "type": "uint256"
        }
      ],
      "stateMutability": "view",
      "type": "function"
    },
    {
      "inputs": [
        {
          "internalType": "uint256",
          "name": "orgId",
          "type": "uint256"
        }
      ],
      "name": "orgs",
      "outputs": [
        {
          "internalType": "address",
          "name": "admin",
          "type": "address"
        },
        {
          "internalType": "string",
          "name": "metadataURI",
          "type": "string"
        }
      ],
      "stateMutability": "view",
      "type": "function"
    },
    {
      "inputs": [
        {
          "internalType": "uint256",
          "name": "orgId",
          "type": "uint256"
        },
        {
          "internalType": "string",
          "name": "metadataURI",
          "type": "string"
        }
      ],
      "name": "setOrgMetadataURI",
      "outputs": [],
      "stateMutability": "nonpayable",
      "type": "function"
    },
    {
      "inputs": [
        {
          "internalType": "uint256",
          "name": "orgId",
          "type": "uint256"
        },
        {
          "internalType": "bytes32",
          "name": "role",
          "type": "bytes32"
        },
        {
          "internalType": "address",
          "name": "account",
          "type": "address"
        },
        {
          "internalType": "bool",
          "name": "enabled",
          "type": "bool"
        }
      ],
      "name": "setRole",
      "outputs": [],
      "stateMutability": "nonpayable",
      "type": "function"
    },
    {
      "inputs": [
        {
          "internalType": "uint256",
          "name": "orgId",
          "type": "uint256"
        },
        {
          "internalType": "address",
          "name": "newAdmin",
          "type": "address"
        }
      ],
      "name": "transferOrgAdmin",
      "outputs": [],
      "stateMutability": "nonpayable",
      "type": "function"
    }
  ],
  "bytecode": "0x608060405234801561000f575f80fd5b50610a2b8061001d5f395ff3fe608060405234801561000f575f80fd5b506004361061007a575f3560e01c80634b36a638116100585780634b36a638146100fa5780634f5c2e6c1461011b578063b0789b791461013c578063d81066901461014f575f80fd5b8063119345aa1461007e57806321fa5278146100d257806339bad658146100e7575b5f80fd5b6100bd61008c3660046105b6565b5f9283526002602090815260408085209385529281528284206001600160a01b039290921684525290205460ff1690565b60405190151581526020015b60405180910390f35b6100e56100e03660046105e8565b610157565b005b6100e56100f5366004610657565b61023d565b61010d61010836600461069f565b6102fb565b6040519081526020016100c9565b61012e6101293660046106d5565b610417565b6040516100c99291906106ec565b6100e561014a366004610748565b6104c4565b61010d5f5481565b5f8281526001602052604090205482906001600160a01b03168061018e57604051634f96659760e01b815260040160405180910390fd5b336001600160a01b038216146101b7576040516311c64b9d60e11b815260040160405180910390fd5b6001600160a01b0383166101de57604051630b5eba9f60e41b815260040160405180910390fd5b5f8481526001602052604080822080546001600160a01b031981166001600160a01b038881169182179093559251911692839188917f2e7fd7586fc44eaa7ef3ab185b1a4cfb3ad21cfc2e84c0f955898dcf7b9c749091a45050505050565b5f8381526001602052604090205483906001600160a01b03168061027457604051634f96659760e01b815260040160405180910390fd5b336001600160a01b0382161461029d576040516311c64b9d60e11b815260040160405180910390fd5b5f858152600160208190526040909120016102b9848683610829565b50847f4c7544979c6dac3f0e22c6cfd715aca92dad5af1ea6953f1896caa016614034885856040516102ec9291906108e3565b60405180910390a25050505050565b5f6001600160a01b03841661032357604051630b5eba9f60e41b815260040160405180910390fd5b5f80815461033090610911565b91905081905590506040518060400160405280856001600160a01b0316815260200184848080601f0160208091040260200160405190810160405280939291908181526020018383808284375f920182905250939094525050838152600160208181526040909220845181546001600160a01b0319166001600160a01b03909116178155918401519192508201906103c89082610935565b50905050836001600160a01b0316817f2e7795b328b7022940fec6614b88f431a24ecbe1f2ee7bc42b8b7574848e95e785856040516104089291906108e3565b60405180910390a39392505050565b600160208190525f9182526040909120805491810180546001600160a01b0390931692610443906107a5565b80601f016020809104026020016040519081016040528092919081815260200182805461046f906107a5565b80156104ba5780601f10610491576101008083540402835291602001916104ba565b820191905f5260205f20905b81548152906001019060200180831161049d57829003601f168201915b5050505050905082565b5f8481526001602052604090205484906001600160a01b0316806104fb57604051634f96659760e01b815260040160405180910390fd5b336001600160a01b03821614610524576040516311c64b9d60e11b815260040160405180910390fd5b5f86815260026020908152604080832088845282528083206001600160a01b03881680855290835292819020805460ff19168715159081179091559051908152879189917f349b1088aa0dca71bc0c8cbfb3e1e87381bd656a72ba2cbca426c4b0f4be5744910160405180910390a4505050505050565b80356001600160a01b03811681146105b1575f80fd5b919050565b5f805f606084860312156105c8575f80fd5b83359250602084013591506105df6040850161059b565b90509250925092565b5f80604083850312156105f9575f80fd5b823591506106096020840161059b565b90509250929050565b5f8083601f840112610622575f80fd5b50813567ffffffffffffffff811115610639575f80fd5b602083019150836020828501011115610650575f80fd5b9250929050565b5f805f60408486031215610669575f80fd5b83359250602084013567ffffffffffffffff811115610686575f80fd5b61069286828701610612565b9497909650939450505050565b5f805f604084860312156106b1575f80fd5b6106ba8461059b565b9250602084013567ffffffffffffffff811115610686575f80fd5b5f602082840312156106e5575f80fd5b5035919050565b60018060a01b03831681525f60206040602084015283518060408501525f5b818110156107275785810183015185820160600152820161070b565b505f606082860101526060601f19601f830116850101925050509392505050565b5f805f806080858703121561075b575f80fd5b84359350602085013592506107726040860161059b565b915060608501358015158114610786575f80fd5b939692955090935050565b634e487b7160e01b5f52604160045260245ffd5b600181811c908216806107b957607f821691505b6020821081036107d757634e487b7160e01b5f52602260045260245ffd5b50919050565b601f82111561082457805f5260205f20601f840160051c810160208510156108025750805b601f840160051c820191505b81811015610821575f815560010161080e565b50505b505050565b67ffffffffffffffff83111561084157610841610791565b6108558361084f83546107a5565b836107dd565b5f601f841160018114610886575f851561086f5750838201355b5f19600387901b1c1916600186901b178355610821565b5f83815260208120601f198716915b828110156108b55786850135825560209485019460019092019101610895565b50868210156108d1575f1960f88860031b161c19848701351681555b505060018560011b0183555050505050565b60208152816020820152818360408301375f818301604090810191909152601f909201601f19160101919050565b5f6001820161092e57634e487b7160e01b5f52601160045260245ffd5b5060010190565b815167ffffffffffffffff81111561094f5761094f610791565b6109638161095d84546107a5565b846107dd565b602080601f831160018114610996575f841561097f5750858301515b5f19600386901b1c1916600185901b1785556109ed565b5f85815260208120601f198616915b828110156109c4578886015182559484019460019091019084016109a5565b50858210156109e157878501515f19600388901b60f8161c191681555b505060018460011b0185555b50505050505056fea2646970667358221220d3d4fadb2f4fedf893bd01abdcb51e32743e11822af52b5fcd6b8d0aacb2ed4764736f6c63430008180033",
  "linkReferences": {},
  "deployedLinkReferences": {},
  "immutableReferences": {},
  "inputSourceName": "project/contracts/YNXOrgRegistry.sol",
  "buildInfoId": "solc-0_8_24-b7148b90ef9b41e6649e2501307e0693bd917c53"
}