{
  "_format": "hh3-artifact-1",
  "contractName": "YNXSubjectRegistry",
  "sourceName": "contracts/YNXSubjectRegistry.sol",
  "abi": [
    {
      "inputs": [
        {
          "internalType": "contract YNXOrgRegistry",
          "name": "orgRegistry_",
          "type": "address"
        }
      ],
      "stateMutability": "nonpayable",
      "type": "constructor"
    },
    {
      "inputs": [],
      "name": "OnlyOrgAdmin",
      "type": "error"
    },
    {
      "inputs": [],
      "name": "OrgNotFound",
      "type": "error"
    },
    {
      "anonymous": false,
      "inputs": [
        {
          "indexed": true,
          "internalType": "address",
          "name": "subject",
          "type": "address"
        },
        {
          "indexed": false,
          "internalType": "string",
          "name": "uri",
          "type": "string"
        }
      ],
      "name": "AddressProfileUpdated",
      "type": "event"
    },
    {
      "anonymous": false,
      "inputs": [
        {
          "indexed": true,
          "internalType": "uint256",
          "name": "orgId",
          "type": "uint256"
        },
        {
          "indexed": false,
          "internalType": "string",
          "name": "uri",
          "type": "string"
        }
      ],
      "name": "OrgProfileUpdated",
      "type": "event"
    },
    {
      "inputs": [
        {
          "internalType": "address",
          "name": "subject",
          "type": "address"
        }
      ],
      "name": "addressProfileURI",
      "outputs": [
        {
          "internalType": "string",
          "name": "uri",
          "type": "string"
        }
      ],
      "stateMutability": "view",
      "type": "function"
    },
    {
      "inputs": [
        {
          "internalType": "uint256",
          "name": "orgId",
          "type": "uint256"
        }
      ],
      "name": "orgProfileURI",
      "outputs": [
        {
          "internalType": "string",
          "name": "uri",
          "type": "string"
        }
      ],
      "stateMutability": "view",
      "type": "function"
    },
    {
      "inputs": [],
      "name": "orgRegistry",
      "outputs": [
        {
          "internalType": "contract YNXOrgRegistry",
          "name": "",
          "type": "address"
        }
      ],
      "stateMutability": "view",
      "type": "function"
    },
    {
      "inputs": [
        {
          "internalType": "string",
          "name": "uri",
          "type": "string"
        }
      ],
      "name": "setMyAddressProfileURI",
      "outputs": [],
      "stateMutability": "nonpayable",
      "type": "function"
    },
    {
      "inputs": [
        {
          "internalType": "uint256",
          "name": "orgId",
          "type": "uint256"
        },
        {
          "internalType": "string",
          "name": "uri",
          "type": "string"
        }
      ],
      "name": "setOrgProfileURI",
      "outputs": [],
      "stateMutability": "nonpayable",
      "type": "function"
    }
  ],
  "bytecode": "0x60a060405234801561000f575f80fd5b506040516107ad3803806107ad83398101604081905261002e9161003f565b6001600160a01b031660805261006c565b5f6020828403121561004f575f80fd5b81516001600160a01b0381168114610065575f80fd5b9392505050565b60805161072361008a5f395f81816073015261011001526107235ff3fe608060405234801561000f575f80fd5b5060043610610055575f3560e01c806344d859d214610059578063573f239c1461006e5780638aaca647146100b257806397cf7a86146100d2578063e1b5775b146100e5575b5f80fd5b61006c610067366004610384565b6100f8565b005b6100957f000000000000000000000000000000000000000000000000000000000000000081565b6040516001600160a01b0390911681526020015b60405180910390f35b6100c56100c03660046103cc565b61022f565b6040516100a99190610405565b6100c56100e036600461044e565b6102c6565b61006c6100f3366004610470565b6102de565b6040516313d70b9b60e21b8152600481018490525f907f00000000000000000000000000000000000000000000000000000000000000006001600160a01b031690634f5c2e6c906024015f60405180830381865afa15801561015c573d5f803e3d5ffd5b505050506040513d5f823e601f3d908101601f1916820160405261018391908101906104c3565b5090506001600160a01b0381166101ad57604051634f96659760e01b815260040160405180910390fd5b336001600160a01b038216146101d6576040516311c64b9d60e11b815260040160405180910390fd5b5f8481526001602052604090206101ee838583610605565b50837f391ab2a4d6e6ef8d2067e2c0a1c62f8c5ede0b8c16ef38b2ca342c7e494952cb84846040516102219291906106bf565b60405180910390a250505050565b60016020525f90815260409020805461024790610581565b80601f016020809104026020016040519081016040528092919081815260200182805461027390610581565b80156102be5780601f10610295576101008083540402835291602001916102be565b820191905f5260205f20905b8154815290600101906020018083116102a157829003601f168201915b505050505081565b5f602081905290815260409020805461024790610581565b335f9081526020819052604090206102f7828483610605565b50336001600160a01b03167f72c7f522cef563315c66c16c6f830c0928f4b1330c3dbda5bb0d71cc0689bc4d83836040516103339291906106bf565b60405180910390a25050565b5f8083601f84011261034f575f80fd5b50813567ffffffffffffffff811115610366575f80fd5b60208301915083602082850101111561037d575f80fd5b9250929050565b5f805f60408486031215610396575f80fd5b83359250602084013567ffffffffffffffff8111156103b3575f80fd5b6103bf8682870161033f565b9497909650939450505050565b5f602082840312156103dc575f80fd5b5035919050565b5f5b838110156103fd5781810151838201526020016103e5565b50505f910152565b602081525f82518060208401526104238160408501602087016103e3565b601f01601f19169190910160400192915050565b6001600160a01b038116811461044b575f80fd5b50565b5f6020828403121561045e575f80fd5b813561046981610437565b9392505050565b5f8060208385031215610481575f80fd5b823567ffffffffffffffff811115610497575f80fd5b6104a38582860161033f565b90969095509350505050565b634e487b7160e01b5f52604160045260245ffd5b5f80604083850312156104d4575f80fd5b82516104df81610437565b602084015190925067ffffffffffffffff808211156104fc575f80fd5b818501915085601f83011261050f575f80fd5b815181811115610521576105216104af565b604051601f8201601f19908116603f01168101908382118183101715610549576105496104af565b81604052828152886020848701011115610561575f80fd5b6105728360208301602088016103e3565b80955050505050509250929050565b600181811c9082168061059557607f821691505b6020821081036105b357634e487b7160e01b5f52602260045260245ffd5b50919050565b601f82111561060057805f5260205f20601f840160051c810160208510156105de5750805b601f840160051c820191505b818110156105fd575f81556001016105ea565b50505b505050565b67ffffffffffffffff83111561061d5761061d6104af565b6106318361062b8354610581565b836105b9565b5f601f841160018114610662575f851561064b5750838201355b5f19600387901b1c1916600186901b1783556105fd565b5f83815260208120601f198716915b828110156106915786850135825560209485019460019092019101610671565b50868210156106ad575f1960f88860031b161c19848701351681555b505060018560011b0183555050505050565b60208152816020820152818360408301375f818301604090810191909152601f909201601f1916010191905056fea26469706673582212202b72c71622631eef7af1726663a8357b1f0cbec0494740d22b5f2b77b5fd8bfe64736f6c63430008180033",
  "linkReferences": {},
  "deployedLinkReferences": {},
  "immutableReferences": {
    "717": [
      {
        "length": 32,
        "start": 115
      },
      {
        "length": 32,
        "start": 272
      }
    ]
  },
  "inputSourceName": "project/contracts/YNXSubjectRegistry.sol",
  "buildInfoId": "solc-0_8_24-b7148b90ef9b41e6649e2501307e0693bd917c53"
}