{
  "_format": "hh3-artifact-1",
  "contractName": "YNXTreasury",
  "sourceName": "contracts/YNXTreasury.sol",
  "abi": [
    {
      "inputs": [
        {
          "internalType": "address",
          "name": "timelock_",
          "type": "address"
        }
      ],
      "stateMutability": "nonpayable",
      "type": "constructor"
    },
    {
      "inputs": [],
      "name": "CallFailed",
      "type": "error"
    },
    {
      "inputs": [],
      "name": "OnlyTimelock",
      "type": "error"
    },
    {
      "inputs": [
        {
          "internalType": "address",
          "name": "target",
          "type": "address"
        },
        {
          "internalType": "uint256",
          "name": "value",
          "type": "uint256"
        },
        {
          "internalType": "bytes",
          "name": "data",
          "type": "bytes"
        }
      ],
      "name": "execute",
      "outputs": [
        {
          "internalType": "bytes",
          "name": "",
          "type": "bytes"
        }
      ],
      "stateMutability": "nonpayable",
      "type": "function"
    },
    {
      "inputs": [],
      "name": "timelock",
      "outputs": [
        {
          "internalType": "address",
          "name": "",
          "type": "address"
        }
      ],
      "stateMutability": "view",
      "type": "function"
    },
    {
      "inputs": [
        {
          "internalType": "contract IERC20",
          "name": "token",
          "type": "address"
        },
        {
          "internalType": "address",
          "name": "to",
          "type": "address"
        },
        {
          "internalType": "uint256",
          "name": "amount",
          "type": "uint256"
        }
      ],
      "name": "transferERC20",
      "outputs": [],
      "stateMutability": "nonpayable",
      "type": "function"
    },
    {
      "stateMutability": "payable",
      "type": "receive"
    }
  ],
  "bytecode": "0x60a060405234801561000f575f80fd5b5060405161049338038061049383398101604081905261002e9161003f565b6001600160a01b031660805261006c565b5f6020828403121561004f575f80fd5b81516001600160a01b0381168114610065575f80fd5b9392505050565b6080516104036100905f395f818160a80152818160ed01526101ae01526104035ff3fe608060405260043610610036575f3560e01c80639db5dbe414610041578063b61d27f614610062578063d33219b414610097575f80fd5b3661003d57005b5f80fd5b34801561004c575f80fd5b5061006061005b36600461028c565b6100e2565b005b34801561006d575f80fd5b5061008161007c3660046102ca565b6101a1565b60405161008e919061034c565b60405180910390f35b3480156100a2575f80fd5b506100ca7f000000000000000000000000000000000000000000000000000000000000000081565b6040516001600160a01b03909116815260200161008e565b336001600160a01b037f0000000000000000000000000000000000000000000000000000000000000000161461012b57604051630e05f48560e11b815260040160405180910390fd5b60405163a9059cbb60e01b81526001600160a01b0383811660048301526024820183905284169063a9059cbb906044016020604051808303815f875af1158015610177573d5f803e3d5ffd5b505050506040513d601f19601f8201168201806040525081019061019b9190610398565b50505050565b6060336001600160a01b037f000000000000000000000000000000000000000000000000000000000000000016146101ec57604051630e05f48560e11b815260040160405180910390fd5b5f80866001600160a01b03168686866040516102099291906103be565b5f6040518083038185875af1925050503d805f8114610243576040519150601f19603f3d011682016040523d82523d5f602084013e610248565b606091505b50915091508161026b57604051633204506f60e01b815260040160405180910390fd5b9695505050505050565b6001600160a01b0381168114610289575f80fd5b50565b5f805f6060848603121561029e575f80fd5b83356102a981610275565b925060208401356102b981610275565b929592945050506040919091013590565b5f805f80606085870312156102dd575f80fd5b84356102e881610275565b935060208501359250604085013567ffffffffffffffff8082111561030b575f80fd5b818701915087601f83011261031e575f80fd5b81358181111561032c575f80fd5b88602082850101111561033d575f80fd5b95989497505060200194505050565b5f602080835283518060208501525f5b818110156103785785810183015185820160400152820161035c565b505f604082860101526040601f19601f8301168501019250505092915050565b5f602082840312156103a8575f80fd5b815180151581146103b7575f80fd5b9392505050565b818382375f910190815291905056fea2646970667358221220568b4b019b0c017d9edd60fa79b3e7eb44408b16ffbfa1c5f363a353d3bf1d3764736f6c63430008180033",
  "linkReferences": {},
  "deployedLinkReferences": {},
  "immutableReferences": {
    "16576": [
      {
        "length": 32,
        "start": 168
      },
      {
        "length": 32,
        "start": 237
      },
      {
        "length": 32,
        "start": 430
      }
    ]
  },
  "inputSourceName": "project/contracts/YNXTreasury.sol",
  "buildInfoId": "solc-0_8_24-8597322c51c208805c0225be2b32f7bca61d2914"
}